{
  "contractName": "DankMint",
  "abi": [
    {
      "inputs": [],
      "stateMutability": "nonpayable",
      "type": "constructor"
    },
    {
      "anonymous": false,
      "inputs": [
        {
          "indexed": true,
          "internalType": "address",
          "name": "owner",
          "type": "address"
        },
        {
          "indexed": true,
          "internalType": "address",
          "name": "approved",
          "type": "address"
        },
        {
          "indexed": true,
          "internalType": "uint256",
          "name": "tokenId",
          "type": "uint256"
        }
      ],
      "name": "Approval",
      "type": "event"
    },
    {
      "anonymous": false,
      "inputs": [
        {
          "indexed": true,
          "internalType": "address",
          "name": "owner",
          "type": "address"
        },
        {
          "indexed": true,
          "internalType": "address",
          "name": "operator",
          "type": "address"
        },
        {
          "indexed": false,
          "internalType": "bool",
          "name": "approved",
          "type": "bool"
        }
      ],
      "name": "ApprovalForAll",
      "type": "event"
    },
    {
      "anonymous": false,
      "inputs": [
        {
          "indexed": true,
          "internalType": "address",
          "name": "from",
          "type": "address"
        },
        {
          "indexed": true,
          "internalType": "address",
          "name": "to",
          "type": "address"
        },
        {
          "indexed": true,
          "internalType": "uint256",
          "name": "tokenId",
          "type": "uint256"
        }
      ],
      "name": "Transfer",
      "type": "event"
    },
    {
      "inputs": [
        {
          "internalType": "address",
          "name": "to",
          "type": "address"
        },
        {
          "internalType": "uint256",
          "name": "tokenId",
          "type": "uint256"
        }
      ],
      "name": "approve",
      "outputs": [],
      "stateMutability": "nonpayable",
      "type": "function"
    },
    {
      "inputs": [
        {
          "internalType": "address",
          "name": "owner",
          "type": "address"
        }
      ],
      "name": "balanceOf",
      "outputs": [
        {
          "internalType": "uint256",
          "name": "",
          "type": "uint256"
        }
      ],
      "stateMutability": "view",
      "type": "function"
    },
    {
      "inputs": [
        {
          "internalType": "uint256",
          "name": "",
          "type": "uint256"
        }
      ],
      "name": "dank_tokens",
      "outputs": [
        {
          "internalType": "string",
          "name": "",
          "type": "string"
        }
      ],
      "stateMutability": "view",
      "type": "function"
    },
    {
      "inputs": [
        {
          "internalType": "uint256",
          "name": "tokenId",
          "type": "uint256"
        }
      ],
      "name": "getApproved",
      "outputs": [
        {
          "internalType": "address",
          "name": "",
          "type": "address"
        }
      ],
      "stateMutability": "view",
      "type": "function"
    },
    {
      "inputs": [
        {
          "internalType": "address",
          "name": "owner",
          "type": "address"
        },
        {
          "internalType": "address",
          "name": "operator",
          "type": "address"
        }
      ],
      "name": "isApprovedForAll",
      "outputs": [
        {
          "internalType": "bool",
          "name": "",
          "type": "bool"
        }
      ],
      "stateMutability": "view",
      "type": "function"
    },
    {
      "inputs": [],
      "name": "name",
      "outputs": [
        {
          "internalType": "string",
          "name": "",
          "type": "string"
        }
      ],
      "stateMutability": "view",
      "type": "function"
    },
    {
      "inputs": [
        {
          "internalType": "uint256",
          "name": "tokenId",
          "type": "uint256"
        }
      ],
      "name": "ownerOf",
      "outputs": [
        {
          "internalType": "address",
          "name": "",
          "type": "address"
        }
      ],
      "stateMutability": "view",
      "type": "function"
    },
    {
      "inputs": [
        {
          "internalType": "address",
          "name": "from",
          "type": "address"
        },
        {
          "internalType": "address",
          "name": "to",
          "type": "address"
        },
        {
          "internalType": "uint256",
          "name": "tokenId",
          "type": "uint256"
        }
      ],
      "name": "safeTransferFrom",
      "outputs": [],
      "stateMutability": "nonpayable",
      "type": "function"
    },
    {
      "inputs": [
        {
          "internalType": "address",
          "name": "from",
          "type": "address"
        },
        {
          "internalType": "address",
          "name": "to",
          "type": "address"
        },
        {
          "internalType": "uint256",
          "name": "tokenId",
          "type": "uint256"
        },
        {
          "internalType": "bytes",
          "name": "_data",
          "type": "bytes"
        }
      ],
      "name": "safeTransferFrom",
      "outputs": [],
      "stateMutability": "nonpayable",
      "type": "function"
    },
    {
      "inputs": [
        {
          "internalType": "address",
          "name": "operator",
          "type": "address"
        },
        {
          "internalType": "bool",
          "name": "approved",
          "type": "bool"
        }
      ],
      "name": "setApprovalForAll",
      "outputs": [],
      "stateMutability": "nonpayable",
      "type": "function"
    },
    {
      "inputs": [
        {
          "internalType": "bytes4",
          "name": "interfaceId",
          "type": "bytes4"
        }
      ],
      "name": "supportsInterface",
      "outputs": [
        {
          "internalType": "bool",
          "name": "",
          "type": "bool"
        }
      ],
      "stateMutability": "view",
      "type": "function"
    },
    {
      "inputs": [],
      "name": "symbol",
      "outputs": [
        {
          "internalType": "string",
          "name": "",
          "type": "string"
        }
      ],
      "stateMutability": "view",
      "type": "function"
    },
    {
      "inputs": [
        {
          "internalType": "uint256",
          "name": "tokenId",
          "type": "uint256"
        }
      ],
      "name": "tokenURI",
      "outputs": [
        {
          "internalType": "string",
          "name": "",
          "type": "string"
        }
      ],
      "stateMutability": "view",
      "type": "function"
    },
    {
      "inputs": [
        {
          "internalType": "address",
          "name": "from",
          "type": "address"
        },
        {
          "internalType": "address",
          "name": "to",
          "type": "address"
        },
        {
          "internalType": "uint256",
          "name": "tokenId",
          "type": "uint256"
        }
      ],
      "name": "transferFrom",
      "outputs": [],
      "stateMutability": "nonpayable",
      "type": "function"
    },
    {
      "inputs": [
        {
          "internalType": "string",
          "name": "_hash",
          "type": "string"
        }
      ],
      "name": "mint",
      "outputs": [],
      "stateMutability": "nonpayable",
      "type": "function"
    },
    {
      "inputs": [],
      "name": "totalSupply",
      "outputs": [
        {
          "internalType": "uint256",
          "name": "",
          "type": "uint256"
        }
      ],
      "stateMutability": "view",
      "type": "function"
    }
  ],
  "bytecode": "0x60806040523480156200001157600080fd5b506040518060400160405280600681526020017f4d7544616e6b00000000000000000000000000000000000000000000000000008152506040518060400160405280600481526020017f44414e4b00000000000000000000000000000000000000000000000000000000815250816000908051906020019062000096929190620000b8565b508060019080519060200190620000af929190620000b8565b505050620001cd565b828054620000c69062000168565b90600052602060002090601f016020900481019282620000ea576000855562000136565b82601f106200010557805160ff191683800117855562000136565b8280016001018555821562000136579182015b828111156200013557825182559160200191906001019062000118565b5b50905062000145919062000149565b5090565b5b80821115620001645760008160009055506001016200014a565b5090565b600060028204905060018216806200018157607f821691505b602082108114156200019857620001976200019e565b5b50919050565b7f4e487b7100000000000000000000000000000000000000000000000000000000600052602260045260246000fd5b612a0080620001dd6000396000f3fe608060405234801561001057600080fd5b50600436106101005760003560e01c80636352211e11610097578063b88d4fde11610066578063b88d4fde146102bf578063c87b56dd146102db578063d85d3d271461030b578063e985e9c51461032757610100565b80636352211e1461022557806370a082311461025557806395d89b4114610285578063a22cb465146102a357610100565b806318160ddd116100d357806318160ddd1461019f57806323b872dd146101bd57806342842e0e146101d95780635156dadd146101f557610100565b806301ffc9a71461010557806306fdde0314610135578063081812fc14610153578063095ea7b314610183575b600080fd5b61011f600480360381019061011a9190611b79565b610357565b60405161012c9190611f91565b60405180910390f35b61013d610439565b60405161014a9190611fac565b60405180910390f35b61016d60048036038101906101689190611c0c565b6104cb565b60405161017a9190611f2a565b60405180910390f35b61019d60048036038101906101989190611b3d565b610550565b005b6101a7610668565b6040516101b4919061218e565b60405180910390f35b6101d760048036038101906101d29190611a37565b610675565b005b6101f360048036038101906101ee9190611a37565b6106d5565b005b61020f600480360381019061020a9190611c0c565b6106f5565b60405161021c9190611fac565b60405180910390f35b61023f600480360381019061023a9190611c0c565b6107a1565b60405161024c9190611f2a565b60405180910390f35b61026f600480360381019061026a91906119d2565b610853565b60405161027c919061218e565b60405180910390f35b61028d61090b565b60405161029a9190611fac565b60405180910390f35b6102bd60048036038101906102b89190611b01565b61099d565b005b6102d960048036038101906102d49190611a86565b610b1e565b005b6102f560048036038101906102f09190611c0c565b610b80565b6040516103029190611fac565b60405180910390f35b61032560048036038101906103209190611bcb565b610c27565b005b610341600480360381019061033c91906119fb565b610cf4565b60405161034e9190611f91565b60405180910390f35b60007f80ac58cd000000000000000000000000000000000000000000000000000000007bffffffffffffffffffffffffffffffffffffffffffffffffffffffff1916827bffffffffffffffffffffffffffffffffffffffffffffffffffffffff1916148061042257507f5b5e139f000000000000000000000000000000000000000000000000000000007bffffffffffffffffffffffffffffffffffffffffffffffffffffffff1916827bffffffffffffffffffffffffffffffffffffffffffffffffffffffff1916145b80610432575061043182610d88565b5b9050919050565b606060008054610448906123e4565b80601f0160208091040260200160405190810160405280929190818152602001828054610474906123e4565b80156104c15780601f10610496576101008083540402835291602001916104c1565b820191906000526020600020905b8154815290600101906020018083116104a457829003601f168201915b5050505050905090565b60006104d682610df2565b610515576040517f08c379a000000000000000000000000000000000000000000000000000000000815260040161050c906120ee565b60405180910390fd5b6004600083815260200190815260200160002060009054906101000a900473ffffffffffffffffffffffffffffffffffffffff169050919050565b600061055b826107a1565b90508073ffffffffffffffffffffffffffffffffffffffff168373ffffffffffffffffffffffffffffffffffffffff1614156105cc576040517f08c379a00000000000000000000000000000000000000000000000000000000081526004016105c39061214e565b60405180910390fd5b8073ffffffffffffffffffffffffffffffffffffffff166105eb610e5e565b73ffffffffffffffffffffffffffffffffffffffff16148061061a575061061981610614610e5e565b610cf4565b5b610659576040517f08c379a00000000000000000000000000000000000000000000000000000000081526004016106509061206e565b60405180910390fd5b6106638383610e66565b505050565b6000600680549050905090565b610686610680610e5e565b82610f1f565b6106c5576040517f08c379a00000000000000000000000000000000000000000000000000000000081526004016106bc9061216e565b60405180910390fd5b6106d0838383610ffd565b505050565b6106f083838360405180602001604052806000815250610b1e565b505050565b6006818154811061070557600080fd5b906000526020600020016000915090508054610720906123e4565b80601f016020809104026020016040519081016040528092919081815260200182805461074c906123e4565b80156107995780601f1061076e57610100808354040283529160200191610799565b820191906000526020600020905b81548152906001019060200180831161077c57829003601f168201915b505050505081565b6000806002600084815260200190815260200160002060009054906101000a900473ffffffffffffffffffffffffffffffffffffffff169050600073ffffffffffffffffffffffffffffffffffffffff168173ffffffffffffffffffffffffffffffffffffffff16141561084a576040517f08c379a0000000000000000000000000000000000000000000000000000000008152600401610841906120ae565b60405180910390fd5b80915050919050565b60008073ffffffffffffffffffffffffffffffffffffffff168273ffffffffffffffffffffffffffffffffffffffff1614156108c4576040517f08c379a00000000000000000000000000000000000000000000000000000000081526004016108bb9061208e565b60405180910390fd5b600360008373ffffffffffffffffffffffffffffffffffffffff1673ffffffffffffffffffffffffffffffffffffffff168152602001908152602001600020549050919050565b60606001805461091a906123e4565b80601f0160208091040260200160405190810160405280929190818152602001828054610946906123e4565b80156109935780601f1061096857610100808354040283529160200191610993565b820191906000526020600020905b81548152906001019060200180831161097657829003601f168201915b5050505050905090565b6109a5610e5e565b73ffffffffffffffffffffffffffffffffffffffff168273ffffffffffffffffffffffffffffffffffffffff161415610a13576040517f08c379a0000000000000000000000000000000000000000000000000000000008152600401610a0a9061202e565b60405180910390fd5b8060056000610a20610e5e565b73ffffffffffffffffffffffffffffffffffffffff1673ffffffffffffffffffffffffffffffffffffffff16815260200190815260200160002060008473ffffffffffffffffffffffffffffffffffffffff1673ffffffffffffffffffffffffffffffffffffffff16815260200190815260200160002060006101000a81548160ff0219169083151502179055508173ffffffffffffffffffffffffffffffffffffffff16610acd610e5e565b73ffffffffffffffffffffffffffffffffffffffff167f17307eab39ab6107e8899845ad3d59bd9653f200f220920489ca2b5937696c3183604051610b129190611f91565b60405180910390a35050565b610b2f610b29610e5e565b83610f1f565b610b6e576040517f08c379a0000000000000000000000000000000000000000000000000000000008152600401610b659061216e565b60405180910390fd5b610b7a84848484611259565b50505050565b6060610b8b82610df2565b610bca576040517f08c379a0000000000000000000000000000000000000000000000000000000008152600401610bc19061212e565b60405180910390fd5b6000610bd46112b5565b90506000815111610bf45760405180602001604052806000815250610c1f565b80610bfe846112cc565b604051602001610c0f929190611f06565b6040516020818303038152906040525b915050919050565b600781604051610c379190611eef565b908152602001604051809103902060009054906101000a900460ff1615610c5d57600080fd5b600681908060018154018082558091505060019003906000526020600020016000909190919091509080519060200190610c989291906117f6565b5060006001600680549050610cad91906122fa565b9050610cb93382611479565b6001600783604051610ccb9190611eef565b908152602001604051809103902060006101000a81548160ff0219169083151502179055505050565b6000600560008473ffffffffffffffffffffffffffffffffffffffff1673ffffffffffffffffffffffffffffffffffffffff16815260200190815260200160002060008373ffffffffffffffffffffffffffffffffffffffff1673ffffffffffffffffffffffffffffffffffffffff16815260200190815260200160002060009054906101000a900460ff16905092915050565b60007f01ffc9a7000000000000000000000000000000000000000000000000000000007bffffffffffffffffffffffffffffffffffffffffffffffffffffffff1916827bffffffffffffffffffffffffffffffffffffffffffffffffffffffff1916149050919050565b60008073ffffffffffffffffffffffffffffffffffffffff166002600084815260200190815260200160002060009054906101000a900473ffffffffffffffffffffffffffffffffffffffff1673ffffffffffffffffffffffffffffffffffffffff1614159050919050565b600033905090565b816004600083815260200190815260200160002060006101000a81548173ffffffffffffffffffffffffffffffffffffffff021916908373ffffffffffffffffffffffffffffffffffffffff160217905550808273ffffffffffffffffffffffffffffffffffffffff16610ed9836107a1565b73ffffffffffffffffffffffffffffffffffffffff167f8c5be1e5ebec7d5bd14f71427d1e84f3dd0314c0f7b2291e5b200ac8c7c3b92560405160405180910390a45050565b6000610f2a82610df2565b610f69576040517f08c379a0000000000000000000000000000000000000000000000000000000008152600401610f609061204e565b60405180910390fd5b6000610f74836107a1565b90508073ffffffffffffffffffffffffffffffffffffffff168473ffffffffffffffffffffffffffffffffffffffff161480610fe357508373ffffffffffffffffffffffffffffffffffffffff16610fcb846104cb565b73ffffffffffffffffffffffffffffffffffffffff16145b80610ff45750610ff38185610cf4565b5b91505092915050565b8273ffffffffffffffffffffffffffffffffffffffff1661101d826107a1565b73ffffffffffffffffffffffffffffffffffffffff1614611073576040517f08c379a000000000000000000000000000000000000000000000000000000000815260040161106a9061210e565b60405180910390fd5b600073ffffffffffffffffffffffffffffffffffffffff168273ffffffffffffffffffffffffffffffffffffffff1614156110e3576040517f08c379a00000000000000000000000000000000000000000000000000000000081526004016110da9061200e565b60405180910390fd5b6110ee838383611647565b6110f9600082610e66565b6001600360008573ffffffffffffffffffffffffffffffffffffffff1673ffffffffffffffffffffffffffffffffffffffff168152602001908152602001600020600082825461114991906122fa565b925050819055506001600360008473ffffffffffffffffffffffffffffffffffffffff1673ffffffffffffffffffffffffffffffffffffffff16815260200190815260200160002060008282546111a09190612273565b92505081905550816002600083815260200190815260200160002060006101000a81548173ffffffffffffffffffffffffffffffffffffffff021916908373ffffffffffffffffffffffffffffffffffffffff160217905550808273ffffffffffffffffffffffffffffffffffffffff168473ffffffffffffffffffffffffffffffffffffffff167fddf252ad1be2c89b69c2b068fc378daa952ba7f163c4a11628f55a4df523b3ef60405160405180910390a4505050565b611264848484610ffd565b6112708484848461164c565b6112af576040517f08c379a00000000000000000000000000000000000000000000000000000000081526004016112a690611fce565b60405180910390fd5b50505050565b606060405180602001604052806000815250905090565b60606000821415611314576040518060400160405280600181526020017f30000000000000000000000000000000000000000000000000000000000000008152509050611474565b600082905060005b6000821461134657808061132f90612447565b915050600a8261133f91906122c9565b915061131c565b60008167ffffffffffffffff811115611388577f4e487b7100000000000000000000000000000000000000000000000000000000600052604160045260246000fd5b6040519080825280601f01601f1916602001820160405280156113ba5781602001600182028036833780820191505090505b5090505b6000851461146d576001826113d391906122fa565b9150600a856113e29190612490565b60306113ee9190612273565b60f81b81838151811061142a577f4e487b7100000000000000000000000000000000000000000000000000000000600052603260045260246000fd5b60200101907effffffffffffffffffffffffffffffffffffffffffffffffffffffffffffff1916908160001a905350600a8561146691906122c9565b94506113be565b8093505050505b919050565b600073ffffffffffffffffffffffffffffffffffffffff168273ffffffffffffffffffffffffffffffffffffffff1614156114e9576040517f08c379a00000000000000000000000000000000000000000000000000000000081526004016114e0906120ce565b60405180910390fd5b6114f281610df2565b15611532576040517f08c379a000000000000000000000000000000000000000000000000000000000815260040161152990611fee565b60405180910390fd5b61153e60008383611647565b6001600360008473ffffffffffffffffffffffffffffffffffffffff1673ffffffffffffffffffffffffffffffffffffffff168152602001908152602001600020600082825461158e9190612273565b92505081905550816002600083815260200190815260200160002060006101000a81548173ffffffffffffffffffffffffffffffffffffffff021916908373ffffffffffffffffffffffffffffffffffffffff160217905550808273ffffffffffffffffffffffffffffffffffffffff16600073ffffffffffffffffffffffffffffffffffffffff167fddf252ad1be2c89b69c2b068fc378daa952ba7f163c4a11628f55a4df523b3ef60405160405180910390a45050565b505050565b600061166d8473ffffffffffffffffffffffffffffffffffffffff166117e3565b156117d6578373ffffffffffffffffffffffffffffffffffffffff1663150b7a02611696610e5e565b8786866040518563ffffffff1660e01b81526004016116b89493929190611f45565b602060405180830381600087803b1580156116d257600080fd5b505af192505050801561170357506040513d601f19601f820116820180604052508101906117009190611ba2565b60015b611786573d8060008114611733576040519150601f19603f3d011682016040523d82523d6000602084013e611738565b606091505b5060008151141561177e576040517f08c379a000000000000000000000000000000000000000000000000000000000815260040161177590611fce565b60405180910390fd5b805181602001fd5b63150b7a0260e01b7bffffffffffffffffffffffffffffffffffffffffffffffffffffffff1916817bffffffffffffffffffffffffffffffffffffffffffffffffffffffff1916149150506117db565b600190505b949350505050565b600080823b905060008111915050919050565b828054611802906123e4565b90600052602060002090601f016020900481019282611824576000855561186b565b82601f1061183d57805160ff191683800117855561186b565b8280016001018555821561186b579182015b8281111561186a57825182559160200191906001019061184f565b5b509050611878919061187c565b5090565b5b8082111561189557600081600090555060010161187d565b5090565b60006118ac6118a7846121ce565b6121a9565b9050828152602081018484840111156118c457600080fd5b6118cf8482856123a2565b509392505050565b60006118ea6118e5846121ff565b6121a9565b90508281526020810184848401111561190257600080fd5b61190d8482856123a2565b509392505050565b6000813590506119248161296e565b92915050565b60008135905061193981612985565b92915050565b60008135905061194e8161299c565b92915050565b6000815190506119638161299c565b92915050565b600082601f83011261197a57600080fd5b813561198a848260208601611899565b91505092915050565b600082601f8301126119a457600080fd5b81356119b48482602086016118d7565b91505092915050565b6000813590506119cc816129b3565b92915050565b6000602082840312156119e457600080fd5b60006119f284828501611915565b91505092915050565b60008060408385031215611a0e57600080fd5b6000611a1c85828601611915565b9250506020611a2d85828601611915565b9150509250929050565b600080600060608486031215611a4c57600080fd5b6000611a5a86828701611915565b9350506020611a6b86828701611915565b9250506040611a7c868287016119bd565b9150509250925092565b60008060008060808587031215611a9c57600080fd5b6000611aaa87828801611915565b9450506020611abb87828801611915565b9350506040611acc878288016119bd565b925050606085013567ffffffffffffffff811115611ae957600080fd5b611af587828801611969565b91505092959194509250565b60008060408385031215611b1457600080fd5b6000611b2285828601611915565b9250506020611b338582860161192a565b9150509250929050565b60008060408385031215611b5057600080fd5b6000611b5e85828601611915565b9250506020611b6f858286016119bd565b9150509250929050565b600060208284031215611b8b57600080fd5b6000611b998482850161193f565b91505092915050565b600060208284031215611bb457600080fd5b6000611bc284828501611954565b91505092915050565b600060208284031215611bdd57600080fd5b600082013567ffffffffffffffff811115611bf757600080fd5b611c0384828501611993565b91505092915050565b600060208284031215611c1e57600080fd5b6000611c2c848285016119bd565b91505092915050565b611c3e8161232e565b82525050565b611c4d81612340565b82525050565b6000611c5e82612230565b611c688185612246565b9350611c788185602086016123b1565b611c818161257d565b840191505092915050565b6000611c978261223b565b611ca18185612257565b9350611cb18185602086016123b1565b611cba8161257d565b840191505092915050565b6000611cd08261223b565b611cda8185612268565b9350611cea8185602086016123b1565b80840191505092915050565b6000611d03603283612257565b9150611d0e8261258e565b604082019050919050565b6000611d26601c83612257565b9150611d31826125dd565b602082019050919050565b6000611d49602483612257565b9150611d5482612606565b604082019050919050565b6000611d6c601983612257565b9150611d7782612655565b602082019050919050565b6000611d8f602c83612257565b9150611d9a8261267e565b604082019050919050565b6000611db2603883612257565b9150611dbd826126cd565b604082019050919050565b6000611dd5602a83612257565b9150611de08261271c565b604082019050919050565b6000611df8602983612257565b9150611e038261276b565b604082019050919050565b6000611e1b602083612257565b9150611e26826127ba565b602082019050919050565b6000611e3e602c83612257565b9150611e49826127e3565b604082019050919050565b6000611e61602983612257565b9150611e6c82612832565b604082019050919050565b6000611e84602f83612257565b9150611e8f82612881565b604082019050919050565b6000611ea7602183612257565b9150611eb2826128d0565b604082019050919050565b6000611eca603183612257565b9150611ed58261291f565b604082019050919050565b611ee981612398565b82525050565b6000611efb8284611cc5565b915081905092915050565b6000611f128285611cc5565b9150611f1e8284611cc5565b91508190509392505050565b6000602082019050611f3f6000830184611c35565b92915050565b6000608082019050611f5a6000830187611c35565b611f676020830186611c35565b611f746040830185611ee0565b8181036060830152611f868184611c53565b905095945050505050565b6000602082019050611fa66000830184611c44565b92915050565b60006020820190508181036000830152611fc68184611c8c565b905092915050565b60006020820190508181036000830152611fe781611cf6565b9050919050565b6000602082019050818103600083015261200781611d19565b9050919050565b6000602082019050818103600083015261202781611d3c565b9050919050565b6000602082019050818103600083015261204781611d5f565b9050919050565b6000602082019050818103600083015261206781611d82565b9050919050565b6000602082019050818103600083015261208781611da5565b9050919050565b600060208201905081810360008301526120a781611dc8565b9050919050565b600060208201905081810360008301526120c781611deb565b9050919050565b600060208201905081810360008301526120e781611e0e565b9050919050565b6000602082019050818103600083015261210781611e31565b9050919050565b6000602082019050818103600083015261212781611e54565b9050919050565b6000602082019050818103600083015261214781611e77565b9050919050565b6000602082019050818103600083015261216781611e9a565b9050919050565b6000602082019050818103600083015261218781611ebd565b9050919050565b60006020820190506121a36000830184611ee0565b92915050565b60006121b36121c4565b90506121bf8282612416565b919050565b6000604051905090565b600067ffffffffffffffff8211156121e9576121e861254e565b5b6121f28261257d565b9050602081019050919050565b600067ffffffffffffffff82111561221a5761221961254e565b5b6122238261257d565b9050602081019050919050565b600081519050919050565b600081519050919050565b600082825260208201905092915050565b600082825260208201905092915050565b600081905092915050565b600061227e82612398565b915061228983612398565b9250827fffffffffffffffffffffffffffffffffffffffffffffffffffffffffffffffff038211156122be576122bd6124c1565b5b828201905092915050565b60006122d482612398565b91506122df83612398565b9250826122ef576122ee6124f0565b5b828204905092915050565b600061230582612398565b915061231083612398565b925082821015612323576123226124c1565b5b828203905092915050565b600061233982612378565b9050919050565b60008115159050919050565b60007fffffffff0000000000000000000000000000000000000000000000000000000082169050919050565b600073ffffffffffffffffffffffffffffffffffffffff82169050919050565b6000819050919050565b82818337600083830152505050565b60005b838110156123cf5780820151818401526020810190506123b4565b838111156123de576000848401525b50505050565b600060028204905060018216806123fc57607f821691505b602082108114156124105761240f61251f565b5b50919050565b61241f8261257d565b810181811067ffffffffffffffff8211171561243e5761243d61254e565b5b80604052505050565b600061245282612398565b91507fffffffffffffffffffffffffffffffffffffffffffffffffffffffffffffffff821415612485576124846124c1565b5b600182019050919050565b600061249b82612398565b91506124a683612398565b9250826124b6576124b56124f0565b5b828206905092915050565b7f4e487b7100000000000000000000000000000000000000000000000000000000600052601160045260246000fd5b7f4e487b7100000000000000000000000000000000000000000000000000000000600052601260045260246000fd5b7f4e487b7100000000000000000000000000000000000000000000000000000000600052602260045260246000fd5b7f4e487b7100000000000000000000000000000000000000000000000000000000600052604160045260246000fd5b6000601f19601f8301169050919050565b7f4552433732313a207472616e7366657220746f206e6f6e20455243373231526560008201527f63656976657220696d706c656d656e7465720000000000000000000000000000602082015250565b7f4552433732313a20746f6b656e20616c7265616479206d696e74656400000000600082015250565b7f4552433732313a207472616e7366657220746f20746865207a65726f2061646460008201527f7265737300000000000000000000000000000000000000000000000000000000602082015250565b7f4552433732313a20617070726f766520746f2063616c6c657200000000000000600082015250565b7f4552433732313a206f70657261746f7220717565727920666f72206e6f6e657860008201527f697374656e7420746f6b656e0000000000000000000000000000000000000000602082015250565b7f4552433732313a20617070726f76652063616c6c6572206973206e6f74206f7760008201527f6e6572206e6f7220617070726f76656420666f7220616c6c0000000000000000602082015250565b7f4552433732313a2062616c616e636520717565727920666f7220746865207a6560008201527f726f206164647265737300000000000000000000000000000000000000000000602082015250565b7f4552433732313a206f776e657220717565727920666f72206e6f6e657869737460008201527f656e7420746f6b656e0000000000000000000000000000000000000000000000602082015250565b7f4552433732313a206d696e7420746f20746865207a65726f2061646472657373600082015250565b7f4552433732313a20617070726f76656420717565727920666f72206e6f6e657860008201527f697374656e7420746f6b656e0000000000000000000000000000000000000000602082015250565b7f4552433732313a207472616e73666572206f6620746f6b656e2074686174206960008201527f73206e6f74206f776e0000000000000000000000000000000000000000000000602082015250565b7f4552433732314d657461646174613a2055524920717565727920666f72206e6f60008201527f6e6578697374656e7420746f6b656e0000000000000000000000000000000000602082015250565b7f4552433732313a20617070726f76616c20746f2063757272656e74206f776e6560008201527f7200000000000000000000000000000000000000000000000000000000000000602082015250565b7f4552433732313a207472616e736665722063616c6c6572206973206e6f74206f60008201527f776e6572206e6f7220617070726f766564000000000000000000000000000000602082015250565b6129778161232e565b811461298257600080fd5b50565b61298e81612340565b811461299957600080fd5b50565b6129a58161234c565b81146129b057600080fd5b50565b6129bc81612398565b81146129c757600080fd5b5056fea2646970667358221220e0029ced061a49b82c8abc9bc81398a26440b5e26371e426b0cc571343f7419e64736f6c63430008030033",
  "immutableReferences": {},
  "source": "// SPDX-License-Identifier: MIT\npragma solidity >=0.4.22 <0.9.0;\n\nimport '@openzeppelin/contracts/token/ERC721/ERC721.sol';\n\ncontract DankMint is ERC721 {\n    string[] public dank_tokens;\n    mapping(string => bool) _tokenExists;\n    constructor() ERC721('MuDank', 'DANK') public {\n\n    }\n\n    function mint(string memory _hash) public {\n        require( !_tokenExists[_hash] );\n        dank_tokens.push(_hash);\n        uint _id = dank_tokens.length - 1;\n        _mint(msg.sender, _id);\n        _tokenExists[_hash] = true;\n    }\n\n    function totalSupply() public view returns (uint) {\n        return dank_tokens.length;\n    }\n}",
  "sourcePath": "/home/oncemore/Blockchain Work/testing-coverage/contracts/DankMint.sol",
  "compiler": {
    "name": "solc",
    "version": "0.8.3+commit.8d00100c.Emscripten.clang"
  },
  "schemaVersion": "3.3.4",
  "updatedAt": "2021-04-02T21:12:29.134Z",
  "devdoc": {
    "kind": "dev",
    "methods": {
      "approve(address,uint256)": {
        "details": "See {IERC721-approve}."
      },
      "balanceOf(address)": {
        "details": "See {IERC721-balanceOf}."
      },
      "getApproved(uint256)": {
        "details": "See {IERC721-getApproved}."
      },
      "isApprovedForAll(address,address)": {
        "details": "See {IERC721-isApprovedForAll}."
      },
      "name()": {
        "details": "See {IERC721Metadata-name}."
      },
      "ownerOf(uint256)": {
        "details": "See {IERC721-ownerOf}."
      },
      "safeTransferFrom(address,address,uint256)": {
        "details": "See {IERC721-safeTransferFrom}."
      },
      "safeTransferFrom(address,address,uint256,bytes)": {
        "details": "See {IERC721-safeTransferFrom}."
      },
      "setApprovalForAll(address,bool)": {
        "details": "See {IERC721-setApprovalForAll}."
      },
      "supportsInterface(bytes4)": {
        "details": "See {IERC165-supportsInterface}."
      },
      "symbol()": {
        "details": "See {IERC721Metadata-symbol}."
      },
      "tokenURI(uint256)": {
        "details": "See {IERC721Metadata-tokenURI}."
      },
      "transferFrom(address,address,uint256)": {
        "details": "See {IERC721-transferFrom}."
      }
    },
    "version": 1
  },
  "userdoc": {
    "kind": "user",
    "methods": {},
    "version": 1
  }
}